{
  "abi": [
    {
      "type": "function",
      "name": "acceptOwnership",
      "inputs": [],
      "outputs": [],
      "stateMutability": "nonpayable"
    },
    {
      "type": "function",
      "name": "allowance",
      "inputs": [
        {
          "name": "owner",
          "type": "address",
          "internalType": "address"
        },
        {
          "name": "spender",
          "type": "address",
          "internalType": "address"
        }
      ],
      "outputs": [
        {
          "name": "",
          "type": "uint256",
          "internalType": "uint256"
        }
      ],
      "stateMutability": "view"
    },
    {
      "type": "function",
      "name": "approve",
      "inputs": [
        {
          "name": "spender",
          "type": "address",
          "internalType": "address"
        },
        {
          "name": "value",
          "type": "uint256",
          "internalType": "uint256"
        }
      ],
      "outputs": [
        {
          "name": "",
          "type": "bool",
          "internalType": "bool"
        }
      ],
      "stateMutability": "nonpayable"
    },
    {
      "type": "function",
      "name": "asset",
      "inputs": [],
      "outputs": [
        {
          "name": "",
          "type": "address",
          "internalType": "address"
        }
      ],
      "stateMutability": "view"
    },
    {
      "type": "function",
      "name": "balanceOf",
      "inputs": [
        {
          "name": "account",
          "type": "address",
          "internalType": "address"
        }
      ],
      "outputs": [
        {
          "name": "",
          "type": "uint256",
          "internalType": "uint256"
        }
      ],
      "stateMutability": "view"
    },
    {
      "type": "function",
      "name": "cancelDepositRequest",
      "inputs": [
        {
          "name": "_requestId",
          "type": "uint256",
          "internalType": "uint256"
        },
        {
          "name": "_controller",
          "type": "address",
          "internalType": "address"
        }
      ],
      "outputs": [],
      "stateMutability": "nonpayable"
    },
    {
      "type": "function",
      "name": "cancelRedeemRequest",
      "inputs": [
        {
          "name": "_requestId",
          "type": "uint256",
          "internalType": "uint256"
        },
        {
          "name": "_controller",
          "type": "address",
          "internalType": "address"
        }
      ],
      "outputs": [],
      "stateMutability": "nonpayable"
    },
    {
      "type": "function",
      "name": "claimCancelDepositRequest",
      "inputs": [
        {
          "name": "_requestId",
          "type": "uint256",
          "internalType": "uint256"
        },
        {
          "name": "_receiver",
          "type": "address",
          "internalType": "address"
        },
        {
          "name": "_controller",
          "type": "address",
          "internalType": "address"
        }
      ],
      "outputs": [],
      "stateMutability": "nonpayable"
    },
    {
      "type": "function",
      "name": "claimCancelRedeemRequest",
      "inputs": [
        {
          "name": "_requestId",
          "type": "uint256",
          "internalType": "uint256"
        },
        {
          "name": "_receiver",
          "type": "address",
          "internalType": "address"
        },
        {
          "name": "_owner",
          "type": "address",
          "internalType": "address"
        }
      ],
      "outputs": [],
      "stateMutability": "nonpayable"
    },
    {
      "type": "function",
      "name": "claimableCancelDepositRequest",
      "inputs": [
        {
          "name": "_requestId",
          "type": "uint256",
          "internalType": "uint256"
        },
        {
          "name": "_controller",
          "type": "address",
          "internalType": "address"
        }
      ],
      "outputs": [
        {
          "name": "assets",
          "type": "uint256",
          "internalType": "uint256"
        }
      ],
      "stateMutability": "nonpayable"
    },
    {
      "type": "function",
      "name": "claimableCancelRedeemRequest",
      "inputs": [
        {
          "name": "_requestId",
          "type": "uint256",
          "internalType": "uint256"
        },
        {
          "name": "_controller",
          "type": "address",
          "internalType": "address"
        }
      ],
      "outputs": [
        {
          "name": "shares",
          "type": "uint256",
          "internalType": "uint256"
        }
      ],
      "stateMutability": "nonpayable"
    },
    {
      "type": "function",
      "name": "claimableDepositRequest",
      "inputs": [
        {
          "name": "_requestId",
          "type": "uint256",
          "internalType": "uint256"
        },
        {
          "name": "_controller",
          "type": "address",
          "internalType": "address"
        }
      ],
      "outputs": [
        {
          "name": "",
          "type": "uint256",
          "internalType": "uint256"
        }
      ],
      "stateMutability": "nonpayable"
    },
    {
      "type": "function",
      "name": "claimableRedeemRequest",
      "inputs": [
        {
          "name": "_requestId",
          "type": "uint256",
          "internalType": "uint256"
        },
        {
          "name": "_controller",
          "type": "address",
          "internalType": "address"
        }
      ],
      "outputs": [
        {
          "name": "claimableShares",
          "type": "uint256",
          "internalType": "uint256"
        }
      ],
      "stateMutability": "nonpayable"
    },
    {
      "type": "function",
      "name": "convertToAssets",
      "inputs": [
        {
          "name": "shares",
          "type": "uint256",
          "internalType": "uint256"
        }
      ],
      "outputs": [
        {
          "name": "",
          "type": "uint256",
          "internalType": "uint256"
        }
      ],
      "stateMutability": "view"
    },
    {
      "type": "function",
      "name": "convertToShares",
      "inputs": [
        {
          "name": "assets",
          "type": "uint256",
          "internalType": "uint256"
        }
      ],
      "outputs": [
        {
          "name": "",
          "type": "uint256",
          "internalType": "uint256"
        }
      ],
      "stateMutability": "view"
    },
    {
      "type": "function",
      "name": "decimals",
      "inputs": [],
      "outputs": [
        {
          "name": "",
          "type": "uint8",
          "internalType": "uint8"
        }
      ],
      "stateMutability": "view"
    },
    {
      "type": "function",
      "name": "deposit",
      "inputs": [
        {
          "name": "_assets",
          "type": "uint256",
          "internalType": "uint256"
        },
        {
          "name": "_receiver",
          "type": "address",
          "internalType": "address"
        },
        {
          "name": "_controller",
          "type": "address",
          "internalType": "address"
        }
      ],
      "outputs": [
        {
          "name": "shares",
          "type": "uint256",
          "internalType": "uint256"
        }
      ],
      "stateMutability": "nonpayable"
    },
    {
      "type": "function",
      "name": "deposit",
      "inputs": [
        {
          "name": "_assets",
          "type": "uint256",
          "internalType": "uint256"
        },
        {
          "name": "_receiver",
          "type": "address",
          "internalType": "address"
        }
      ],
      "outputs": [
        {
          "name": "",
          "type": "uint256",
          "internalType": "uint256"
        }
      ],
      "stateMutability": "nonpayable"
    },
    {
      "type": "function",
      "name": "initialize",
      "inputs": [
        {
          "name": "_stParams",
          "type": "tuple",
          "internalType": "struct TrancheDeploymentParams",
          "components": [
            {
              "name": "name",
              "type": "string",
              "internalType": "string"
            },
            {
              "name": "symbol",
              "type": "string",
              "internalType": "string"
            },
            {
              "name": "kernel",
              "type": "address",
              "internalType": "address"
            },
            {
              "name": "kernelInitParams",
              "type": "bytes",
              "internalType": "bytes"
            }
          ]
        },
        {
          "name": "_asset",
          "type": "address",
          "internalType": "address"
        },
        {
          "name": "_owner",
          "type": "address",
          "internalType": "address"
        },
        {
          "name": "_rewardFeeWAD",
          "type": "uint64",
          "internalType": "uint64"
        },
        {
          "name": "_feeClaimant",
          "type": "address",
          "internalType": "address"
        },
        {
          "name": "_rdm",
          "type": "address",
          "internalType": "address"
        },
        {
          "name": "_coverageWAD",
          "type": "uint64",
          "internalType": "uint64"
        },
        {
          "name": "_juniorTranche",
          "type": "address",
          "internalType": "address"
        }
      ],
      "outputs": [],
      "stateMutability": "nonpayable"
    },
    {
      "type": "function",
      "name": "isOperator",
      "inputs": [
        {
          "name": "_controller",
          "type": "address",
          "internalType": "address"
        },
        {
          "name": "_operator",
          "type": "address",
          "internalType": "address"
        }
      ],
      "outputs": [
        {
          "name": "",
          "type": "bool",
          "internalType": "bool"
        }
      ],
      "stateMutability": "view"
    },
    {
      "type": "function",
      "name": "maxDeposit",
      "inputs": [
        {
          "name": "",
          "type": "address",
          "internalType": "address"
        }
      ],
      "outputs": [
        {
          "name": "",
          "type": "uint256",
          "internalType": "uint256"
        }
      ],
      "stateMutability": "view"
    },
    {
      "type": "function",
      "name": "maxMint",
      "inputs": [
        {
          "name": "",
          "type": "address",
          "internalType": "address"
        }
      ],
      "outputs": [
        {
          "name": "",
          "type": "uint256",
          "internalType": "uint256"
        }
      ],
      "stateMutability": "view"
    },
    {
      "type": "function",
      "name": "maxRedeem",
      "inputs": [
        {
          "name": "_owner",
          "type": "address",
          "internalType": "address"
        }
      ],
      "outputs": [
        {
          "name": "",
          "type": "uint256",
          "internalType": "uint256"
        }
      ],
      "stateMutability": "view"
    },
    {
      "type": "function",
      "name": "maxWithdraw",
      "inputs": [
        {
          "name": "_owner",
          "type": "address",
          "internalType": "address"
        }
      ],
      "outputs": [
        {
          "name": "",
          "type": "uint256",
          "internalType": "uint256"
        }
      ],
      "stateMutability": "view"
    },
    {
      "type": "function",
      "name": "mint",
      "inputs": [
        {
          "name": "_shares",
          "type": "uint256",
          "internalType": "uint256"
        },
        {
          "name": "_receiver",
          "type": "address",
          "internalType": "address"
        }
      ],
      "outputs": [
        {
          "name": "",
          "type": "uint256",
          "internalType": "uint256"
        }
      ],
      "stateMutability": "nonpayable"
    },
    {
      "type": "function",
      "name": "mint",
      "inputs": [
        {
          "name": "_shares",
          "type": "uint256",
          "internalType": "uint256"
        },
        {
          "name": "_receiver",
          "type": "address",
          "internalType": "address"
        },
        {
          "name": "_controller",
          "type": "address",
          "internalType": "address"
        }
      ],
      "outputs": [
        {
          "name": "assets",
          "type": "uint256",
          "internalType": "uint256"
        }
      ],
      "stateMutability": "nonpayable"
    },
    {
      "type": "function",
      "name": "name",
      "inputs": [],
      "outputs": [
        {
          "name": "",
          "type": "string",
          "internalType": "string"
        }
      ],
      "stateMutability": "view"
    },
    {
      "type": "function",
      "name": "owner",
      "inputs": [],
      "outputs": [
        {
          "name": "",
          "type": "address",
          "internalType": "address"
        }
      ],
      "stateMutability": "view"
    },
    {
      "type": "function",
      "name": "pendingCancelDepositRequest",
      "inputs": [
        {
          "name": "_requestId",
          "type": "uint256",
          "internalType": "uint256"
        },
        {
          "name": "_controller",
          "type": "address",
          "internalType": "address"
        }
      ],
      "outputs": [
        {
          "name": "isPending",
          "type": "bool",
          "internalType": "bool"
        }
      ],
      "stateMutability": "nonpayable"
    },
    {
      "type": "function",
      "name": "pendingCancelRedeemRequest",
      "inputs": [
        {
          "name": "_requestId",
          "type": "uint256",
          "internalType": "uint256"
        },
        {
          "name": "_controller",
          "type": "address",
          "internalType": "address"
        }
      ],
      "outputs": [
        {
          "name": "isPending",
          "type": "bool",
          "internalType": "bool"
        }
      ],
      "stateMutability": "nonpayable"
    },
    {
      "type": "function",
      "name": "pendingDepositRequest",
      "inputs": [
        {
          "name": "_requestId",
          "type": "uint256",
          "internalType": "uint256"
        },
        {
          "name": "_controller",
          "type": "address",
          "internalType": "address"
        }
      ],
      "outputs": [
        {
          "name": "",
          "type": "uint256",
          "internalType": "uint256"
        }
      ],
      "stateMutability": "nonpayable"
    },
    {
      "type": "function",
      "name": "pendingOwner",
      "inputs": [],
      "outputs": [
        {
          "name": "",
          "type": "address",
          "internalType": "address"
        }
      ],
      "stateMutability": "view"
    },
    {
      "type": "function",
      "name": "pendingRedeemRequest",
      "inputs": [
        {
          "name": "_requestId",
          "type": "uint256",
          "internalType": "uint256"
        },
        {
          "name": "_controller",
          "type": "address",
          "internalType": "address"
        }
      ],
      "outputs": [
        {
          "name": "pendingShares",
          "type": "uint256",
          "internalType": "uint256"
        }
      ],
      "stateMutability": "nonpayable"
    },
    {
      "type": "function",
      "name": "previewDeposit",
      "inputs": [
        {
          "name": "_assets",
          "type": "uint256",
          "internalType": "uint256"
        }
      ],
      "outputs": [
        {
          "name": "",
          "type": "uint256",
          "internalType": "uint256"
        }
      ],
      "stateMutability": "view"
    },
    {
      "type": "function",
      "name": "previewMint",
      "inputs": [
        {
          "name": "_shares",
          "type": "uint256",
          "internalType": "uint256"
        }
      ],
      "outputs": [
        {
          "name": "",
          "type": "uint256",
          "internalType": "uint256"
        }
      ],
      "stateMutability": "view"
    },
    {
      "type": "function",
      "name": "previewRedeem",
      "inputs": [
        {
          "name": "_shares",
          "type": "uint256",
          "internalType": "uint256"
        }
      ],
      "outputs": [
        {
          "name": "",
          "type": "uint256",
          "internalType": "uint256"
        }
      ],
      "stateMutability": "view"
    },
    {
      "type": "function",
      "name": "previewWithdraw",
      "inputs": [
        {
          "name": "_assets",
          "type": "uint256",
          "internalType": "uint256"
        }
      ],
      "outputs": [
        {
          "name": "",
          "type": "uint256",
          "internalType": "uint256"
        }
      ],
      "stateMutability": "view"
    },
    {
      "type": "function",
      "name": "redeem",
      "inputs": [
        {
          "name": "_shares",
          "type": "uint256",
          "internalType": "uint256"
        },
        {
          "name": "_receiver",
          "type": "address",
          "internalType": "address"
        },
        {
          "name": "_controller",
          "type": "address",
          "internalType": "address"
        }
      ],
      "outputs": [
        {
          "name": "assets",
          "type": "uint256",
          "internalType": "uint256"
        }
      ],
      "stateMutability": "nonpayable"
    },
    {
      "type": "function",
      "name": "renounceOwnership",
      "inputs": [],
      "outputs": [],
      "stateMutability": "nonpayable"
    },
    {
      "type": "function",
      "name": "requestDeposit",
      "inputs": [
        {
          "name": "_assets",
          "type": "uint256",
          "internalType": "uint256"
        },
        {
          "name": "_controller",
          "type": "address",
          "internalType": "address"
        },
        {
          "name": "_owner",
          "type": "address",
          "internalType": "address"
        }
      ],
      "outputs": [
        {
          "name": "requestId",
          "type": "uint256",
          "internalType": "uint256"
        }
      ],
      "stateMutability": "nonpayable"
    },
    {
      "type": "function",
      "name": "requestRedeem",
      "inputs": [
        {
          "name": "_shares",
          "type": "uint256",
          "internalType": "uint256"
        },
        {
          "name": "_controller",
          "type": "address",
          "internalType": "address"
        },
        {
          "name": "_owner",
          "type": "address",
          "internalType": "address"
        }
      ],
      "outputs": [
        {
          "name": "requestId",
          "type": "uint256",
          "internalType": "uint256"
        }
      ],
      "stateMutability": "nonpayable"
    },
    {
      "type": "function",
      "name": "setOperator",
      "inputs": [
        {
          "name": "_operator",
          "type": "address",
          "internalType": "address"
        },
        {
          "name": "_approved",
          "type": "bool",
          "internalType": "bool"
        }
      ],
      "outputs": [
        {
          "name": "",
          "type": "bool",
          "internalType": "bool"
        }
      ],
      "stateMutability": "nonpayable"
    },
    {
      "type": "function",
      "name": "share",
      "inputs": [],
      "outputs": [
        {
          "name": "",
          "type": "address",
          "internalType": "address"
        }
      ],
      "stateMutability": "view"
    },
    {
      "type": "function",
      "name": "supportsInterface",
      "inputs": [
        {
          "name": "_interfaceId",
          "type": "bytes4",
          "internalType": "bytes4"
        }
      ],
      "outputs": [
        {
          "name": "",
          "type": "bool",
          "internalType": "bool"
        }
      ],
      "stateMutability": "pure"
    },
    {
      "type": "function",
      "name": "symbol",
      "inputs": [],
      "outputs": [
        {
          "name": "",
          "type": "string",
          "internalType": "string"
        }
      ],
      "stateMutability": "view"
    },
    {
      "type": "function",
      "name": "totalAssets",
      "inputs": [],
      "outputs": [
        {
          "name": "",
          "type": "uint256",
          "internalType": "uint256"
        }
      ],
      "stateMutability": "view"
    },
    {
      "type": "function",
      "name": "totalSupply",
      "inputs": [],
      "outputs": [
        {
          "name": "",
          "type": "uint256",
          "internalType": "uint256"
        }
      ],
      "stateMutability": "view"
    },
    {
      "type": "function",
      "name": "transfer",
      "inputs": [
        {
          "name": "to",
          "type": "address",
          "internalType": "address"
        },
        {
          "name": "value",
          "type": "uint256",
          "internalType": "uint256"
        }
      ],
      "outputs": [
        {
          "name": "",
          "type": "bool",
          "internalType": "bool"
        }
      ],
      "stateMutability": "nonpayable"
    },
    {
      "type": "function",
      "name": "transferFrom",
      "inputs": [
        {
          "name": "from",
          "type": "address",
          "internalType": "address"
        },
        {
          "name": "to",
          "type": "address",
          "internalType": "address"
        },
        {
          "name": "value",
          "type": "uint256",
          "internalType": "uint256"
        }
      ],
      "outputs": [
        {
          "name": "",
          "type": "bool",
          "internalType": "bool"
        }
      ],
      "stateMutability": "nonpayable"
    },
    {
      "type": "function",
      "name": "transferOwnership",
      "inputs": [
        {
          "name": "newOwner",
          "type": "address",
          "internalType": "address"
        }
      ],
      "outputs": [],
      "stateMutability": "nonpayable"
    },
    {
      "type": "function",
      "name": "vault",
      "inputs": [
        {
          "name": "_asset",
          "type": "address",
          "internalType": "address"
        }
      ],
      "outputs": [
        {
          "name": "",
          "type": "address",
          "internalType": "address"
        }
      ],
      "stateMutability": "view"
    },
    {
      "type": "function",
      "name": "withdraw",
      "inputs": [
        {
          "name": "_assets",
          "type": "uint256",
          "internalType": "uint256"
        },
        {
          "name": "_receiver",
          "type": "address",
          "internalType": "address"
        },
        {
          "name": "_controller",
          "type": "address",
          "internalType": "address"
        }
      ],
      "outputs": [
        {
          "name": "shares",
          "type": "uint256",
          "internalType": "uint256"
        }
      ],
      "stateMutability": "nonpayable"
    },
    {
      "type": "event",
      "name": "Approval",
      "inputs": [
        {
          "name": "owner",
          "type": "address",
          "indexed": true,
          "internalType": "address"
        },
        {
          "name": "spender",
          "type": "address",
          "indexed": true,
          "internalType": "address"
        },
        {
          "name": "value",
          "type": "uint256",
          "indexed": false,
          "internalType": "uint256"
        }
      ],
      "anonymous": false
    },
    {
      "type": "event",
      "name": "CancelDepositClaim",
      "inputs": [
        {
          "name": "controller",
          "type": "address",
          "indexed": true,
          "internalType": "address"
        },
        {
          "name": "receiver",
          "type": "address",
          "indexed": true,
          "internalType": "address"
        },
        {
          "name": "requestId",
          "type": "uint256",
          "indexed": true,
          "internalType": "uint256"
        },
        {
          "name": "sender",
          "type": "address",
          "indexed": false,
          "internalType": "address"
        },
        {
          "name": "assets",
          "type": "uint256",
          "indexed": false,
          "internalType": "uint256"
        }
      ],
      "anonymous": false
    },
    {
      "type": "event",
      "name": "CancelDepositRequest",
      "inputs": [
        {
          "name": "controller",
          "type": "address",
          "indexed": true,
          "internalType": "address"
        },
        {
          "name": "requestId",
          "type": "uint256",
          "indexed": true,
          "internalType": "uint256"
        },
        {
          "name": "sender",
          "type": "address",
          "indexed": false,
          "internalType": "address"
        }
      ],
      "anonymous": false
    },
    {
      "type": "event",
      "name": "CancelRedeemClaim",
      "inputs": [
        {
          "name": "controller",
          "type": "address",
          "indexed": true,
          "internalType": "address"
        },
        {
          "name": "receiver",
          "type": "address",
          "indexed": true,
          "internalType": "address"
        },
        {
          "name": "requestId",
          "type": "uint256",
          "indexed": true,
          "internalType": "uint256"
        },
        {
          "name": "sender",
          "type": "address",
          "indexed": false,
          "internalType": "address"
        },
        {
          "name": "shares",
          "type": "uint256",
          "indexed": false,
          "internalType": "uint256"
        }
      ],
      "anonymous": false
    },
    {
      "type": "event",
      "name": "CancelRedeemRequest",
      "inputs": [
        {
          "name": "controller",
          "type": "address",
          "indexed": true,
          "internalType": "address"
        },
        {
          "name": "requestId",
          "type": "uint256",
          "indexed": true,
          "internalType": "uint256"
        },
        {
          "name": "sender",
          "type": "address",
          "indexed": false,
          "internalType": "address"
        }
      ],
      "anonymous": false
    },
    {
      "type": "event",
      "name": "Deposit",
      "inputs": [
        {
          "name": "sender",
          "type": "address",
          "indexed": true,
          "internalType": "address"
        },
        {
          "name": "owner",
          "type": "address",
          "indexed": true,
          "internalType": "address"
        },
        {
          "name": "assets",
          "type": "uint256",
          "indexed": false,
          "internalType": "uint256"
        },
        {
          "name": "shares",
          "type": "uint256",
          "indexed": false,
          "internalType": "uint256"
        }
      ],
      "anonymous": false
    },
    {
      "type": "event",
      "name": "DepositRequest",
      "inputs": [
        {
          "name": "controller",
          "type": "address",
          "indexed": true,
          "internalType": "address"
        },
        {
          "name": "owner",
          "type": "address",
          "indexed": true,
          "internalType": "address"
        },
        {
          "name": "requestId",
          "type": "uint256",
          "indexed": true,
          "internalType": "uint256"
        },
        {
          "name": "sender",
          "type": "address",
          "indexed": false,
          "internalType": "address"
        },
        {
          "name": "assets",
          "type": "uint256",
          "indexed": false,
          "internalType": "uint256"
        }
      ],
      "anonymous": false
    },
    {
      "type": "event",
      "name": "Initialized",
      "inputs": [
        {
          "name": "version",
          "type": "uint64",
          "indexed": false,
          "internalType": "uint64"
        }
      ],
      "anonymous": false
    },
    {
      "type": "event",
      "name": "OperatorSet",
      "inputs": [
        {
          "name": "owner",
          "type": "address",
          "indexed": true,
          "internalType": "address"
        },
        {
          "name": "operator",
          "type": "address",
          "indexed": true,
          "internalType": "address"
        },
        {
          "name": "approved",
          "type": "bool",
          "indexed": false,
          "internalType": "bool"
        }
      ],
      "anonymous": false
    },
    {
      "type": "event",
      "name": "OwnershipTransferStarted",
      "inputs": [
        {
          "name": "previousOwner",
          "type": "address",
          "indexed": true,
          "internalType": "address"
        },
        {
          "name": "newOwner",
          "type": "address",
          "indexed": true,
          "internalType": "address"
        }
      ],
      "anonymous": false
    },
    {
      "type": "event",
      "name": "OwnershipTransferred",
      "inputs": [
        {
          "name": "previousOwner",
          "type": "address",
          "indexed": true,
          "internalType": "address"
        },
        {
          "name": "newOwner",
          "type": "address",
          "indexed": true,
          "internalType": "address"
        }
      ],
      "anonymous": false
    },
    {
      "type": "event",
      "name": "RedeemRequest",
      "inputs": [
        {
          "name": "controller",
          "type": "address",
          "indexed": true,
          "internalType": "address"
        },
        {
          "name": "owner",
          "type": "address",
          "indexed": true,
          "internalType": "address"
        },
        {
          "name": "requestId",
          "type": "uint256",
          "indexed": true,
          "internalType": "uint256"
        },
        {
          "name": "sender",
          "type": "address",
          "indexed": false,
          "internalType": "address"
        },
        {
          "name": "shares",
          "type": "uint256",
          "indexed": false,
          "internalType": "uint256"
        }
      ],
      "anonymous": false
    },
    {
      "type": "event",
      "name": "Transfer",
      "inputs": [
        {
          "name": "from",
          "type": "address",
          "indexed": true,
          "internalType": "address"
        },
        {
          "name": "to",
          "type": "address",
          "indexed": true,
          "internalType": "address"
        },
        {
          "name": "value",
          "type": "uint256",
          "indexed": false,
          "internalType": "uint256"
        }
      ],
      "anonymous": false
    },
    {
      "type": "event",
      "name": "Withdraw",
      "inputs": [
        {
          "name": "sender",
          "type": "address",
          "indexed": true,
          "internalType": "address"
        },
        {
          "name": "receiver",
          "type": "address",
          "indexed": true,
          "internalType": "address"
        },
        {
          "name": "owner",
          "type": "address",
          "indexed": true,
          "internalType": "address"
        },
        {
          "name": "assets",
          "type": "uint256",
          "indexed": false,
          "internalType": "uint256"
        },
        {
          "name": "shares",
          "type": "uint256",
          "indexed": false,
          "internalType": "uint256"
        }
      ],
      "anonymous": false
    },
    {
      "type": "error",
      "name": "ERC20InsufficientAllowance",
      "inputs": [
        {
          "name": "spender",
          "type": "address",
          "internalType": "address"
        },
        {
          "name": "allowance",
          "type": "uint256",
          "internalType": "uint256"
        },
        {
          "name": "needed",
          "type": "uint256",
          "internalType": "uint256"
        }
      ]
    },
    {
      "type": "error",
      "name": "ERC20InsufficientBalance",
      "inputs": [
        {
          "name": "sender",
          "type": "address",
          "internalType": "address"
        },
        {
          "name": "balance",
          "type": "uint256",
          "internalType": "uint256"
        },
        {
          "name": "needed",
          "type": "uint256",
          "internalType": "uint256"
        }
      ]
    },
    {
      "type": "error",
      "name": "ERC20InvalidApprover",
      "inputs": [
        {
          "name": "approver",
          "type": "address",
          "internalType": "address"
        }
      ]
    },
    {
      "type": "error",
      "name": "ERC20InvalidReceiver",
      "inputs": [
        {
          "name": "receiver",
          "type": "address",
          "internalType": "address"
        }
      ]
    },
    {
      "type": "error",
      "name": "ERC20InvalidSender",
      "inputs": [
        {
          "name": "sender",
          "type": "address",
          "internalType": "address"
        }
      ]
    },
    {
      "type": "error",
      "name": "ERC20InvalidSpender",
      "inputs": [
        {
          "name": "spender",
          "type": "address",
          "internalType": "address"
        }
      ]
    },
    {
      "type": "error",
      "name": "ERC4626ExceededMaxDeposit",
      "inputs": [
        {
          "name": "receiver",
          "type": "address",
          "internalType": "address"
        },
        {
          "name": "assets",
          "type": "uint256",
          "internalType": "uint256"
        },
        {
          "name": "max",
          "type": "uint256",
          "internalType": "uint256"
        }
      ]
    },
    {
      "type": "error",
      "name": "ERC4626ExceededMaxMint",
      "inputs": [
        {
          "name": "receiver",
          "type": "address",
          "internalType": "address"
        },
        {
          "name": "shares",
          "type": "uint256",
          "internalType": "uint256"
        },
        {
          "name": "max",
          "type": "uint256",
          "internalType": "uint256"
        }
      ]
    },
    {
      "type": "error",
      "name": "ERC4626ExceededMaxRedeem",
      "inputs": [
        {
          "name": "owner",
          "type": "address",
          "internalType": "address"
        },
        {
          "name": "shares",
          "type": "uint256",
          "internalType": "uint256"
        },
        {
          "name": "max",
          "type": "uint256",
          "internalType": "uint256"
        }
      ]
    },
    {
      "type": "error",
      "name": "ERC4626ExceededMaxWithdraw",
      "inputs": [
        {
          "name": "owner",
          "type": "address",
          "internalType": "address"
        },
        {
          "name": "assets",
          "type": "uint256",
          "internalType": "uint256"
        },
        {
          "name": "max",
          "type": "uint256",
          "internalType": "uint256"
        }
      ]
    },
    {
      "type": "error",
      "name": "INSUFFICIENT_ASSETS_IN_JUNIOR_TRANCHE",
      "inputs": []
    },
    {
      "type": "error",
      "name": "INVALID_CALLER",
      "inputs": []
    },
    {
      "type": "error",
      "name": "InvalidInitialization",
      "inputs": []
    },
    {
      "type": "error",
      "name": "KERNEL_DELEGATECALL_FAILED",
      "inputs": [
        {
          "name": "callData",
          "type": "bytes",
          "internalType": "bytes"
        },
        {
          "name": "returnData",
          "type": "bytes",
          "internalType": "bytes"
        }
      ]
    },
    {
      "type": "error",
      "name": "MAX_FEE_EXCEEDED",
      "inputs": []
    },
    {
      "type": "error",
      "name": "NotInitializing",
      "inputs": []
    },
    {
      "type": "error",
      "name": "OwnableInvalidOwner",
      "inputs": [
        {
          "name": "owner",
          "type": "address",
          "internalType": "address"
        }
      ]
    },
    {
      "type": "error",
      "name": "OwnableUnauthorizedAccount",
      "inputs": [
        {
          "name": "account",
          "type": "address",
          "internalType": "address"
        }
      ]
    },
    {
      "type": "error",
      "name": "SafeERC20FailedOperation",
      "inputs": [
        {
          "name": "token",
          "type": "address",
          "internalType": "address"
        }
      ]
    },
    {
      "type": "error",
      "name": "UNSUPPORTED_OPERATION",
      "inputs": []
    }
  ],
  "bytecode": {
    "object": "0x60808060405234601557614563908161001a8239f35b5f80fdfe60806040526004361015610011575f80fd5b5f3560e01c8062a06d1914612ad157806301e1d11414612ab757806301ffc9a7146129b457806306fdde03146128d157806307a2d13a146128b3578063095ea7b3146127b85780630a28a4771461276557806318160ddd1461272957806323b872dd146126f157806326c6f96c1461265e5780632b9d9c1f1461252e5780632e2d298414612515578063313ce5671461249c57806333f180d7146116ec57806338d52e0f146116a7578063402d267d146116835780634cdad50614611630578063558a72971461157457806369d77a44146113ba5780636e553f651461139257806370a082311461133b578063715018a61461123c57806379ba5097146111c45780637c1b50c41461112d5780637d41c86e14610fa757806385b77f4514610e305780638da5cb5b14610deb57806394bf804d14610dc357806395d89b4114610ca3578063995ea21a14610bf0578063a8d5fd6514610bd6578063a9059cbb14610ba5578063aabb592214610b54578063b04a5e0514610b03578063b3d7f6b914610ab3578063b460af9414610973578063b6363cf2146108f5578063b9cf0634146107c5578063ba0876521461065d578063c63d75b614610631578063c6e6f59214610613578063ce96cb77146105f0578063d905777e146105cd578063da39b3e7146105b4578063dd62ed3e1461053b578063e30c3978146104f6578063eaed1d07146102c3578063ef8b30f714610462578063f15b65b1146103a0578063f2fde38b146102c8578063f5a23d8d146102c35763f815c03d14610254575f80fd5b346102bf5760206003193601126102bf5761026d612bcf565b6001600160a01b03807f0773e532dfede91f04b12a73d3d2acd361424f41f76b4fb79f090161e36b4e0054169116145f146102b7576020305b6001600160a01b0360405191168152f35b60205f6102a6565b5f80fd5b612c70565b346102bf5760206003193601126102bf576001600160a01b036102e9612bcf565b6102f1613c4a565b168073ffffffffffffffffffffffffffffffffffffffff197f237e158222e3e6968b72b9db0d8043aacf074ad9f650f0d1606b4d82ee432c005416177f237e158222e3e6968b72b9db0d8043aacf074ad9f650f0d1606b4d82ee432c00556001600160a01b037f9016d09d72d40fdae2fd8ceac6b6234c7706214fd39c1cd1e609a0528c19930054167f38d16b8cac22d99fc7c124b9cd0de2d3fa1faef420bfe791d8c362d765e227005f80a3005b346102bf5760406003193601126102bf57602061045861044a6104376103c4612be5565b7f9aae6b709d857af2bed67bb686f14d35450d93e0187f3ff0787ddf0bec656101546040517ff15b65b1000000000000000000000000000000000000000000000000000000008782015260043560248201526001600160a01b039283166044820152929116906104459083906064820190565b03601f198101845283612d03565b614164565b828082518301019101613d69565b6040519015158152f35b346102bf5760206003193601126102bf5760ff7f9aae6b709d857af2bed67bb686f14d35450d93e0187f3ff0787ddf0bec656106541660028110156104e2576104ba5760206104b260043561405f565b604051908152f35b7fc1b9a99e000000000000000000000000000000000000000000000000000000005f5260045ffd5b634e487b7160e01b5f52602160045260245ffd5b346102bf575f6003193601126102bf5760206001600160a01b037f237e158222e3e6968b72b9db0d8043aacf074ad9f650f0d1606b4d82ee432c005416604051908152f35b346102bf5760406003193601126102bf57610554612bcf565b6001600160a01b0361059e610567612be5565b926001600160a01b03165f527f52c63247e1f47db19d5ce0460030c497f067ca4cebf71ba98eeadabe20bace0160205260405f2090565b91165f52602052602060405f2054604051908152f35b346102bf5760206104b26105c736612c11565b91613572565b346102bf5760206003193601126102bf5760206104b26105eb612bcf565b6134d8565b346102bf5760206003193601126102bf5760206104b261060e612bcf565b61344a565b346102bf5760206003193601126102bf5760206104b260043561405f565b346102bf5760206003193601126102bf5761064a612bcf565b5060206104b261065861325f565b61405f565b346102bf5761066b36612c11565b6001600160a01b038193929316803314801561076e575b1561074657610690826134d8565b90818411610713576020846104b287866106b66106ac8561388c565b9485838533613e2f565b836001600160a01b037f9aae6b709d857af2bed67bb686f14d35450d93e0187f3ff0787ddf0bec65610154166001600160a01b037f0773e532dfede91f04b12a73d3d2acd361424f41f76b4fb79f090161e36b4e00541690613f88565b83907fb94abeec000000000000000000000000000000000000000000000000000000005f5260045260245260445260645ffd5b7f0d50c222000000000000000000000000000000000000000000000000000000005f5260045ffd5b506107a9826001600160a01b03165f527f9aae6b709d857af2bed67bb686f14d35450d93e0187f3ff0787ddf0bec65610760205260405f2090565b6001600160a01b0333165f5260205260ff60405f205416610682565b346102bf5760406003193601126102bf576004356107e1612be5565b6001600160a01b03811690813314801561089e575b15610746577f9aae6b709d857af2bed67bb686f14d35450d93e0187f3ff0787ddf0bec656101546040517fb9cf0634000000000000000000000000000000000000000000000000000000006020820152602481018590526001600160a01b039283166044820152610871929091166104458260648101610437565b507f4ae0134aad5d0e98e82f45680facd628ee6b5aa85ad9a85248a7ef47319f8c506020604051338152a3005b506108d9816001600160a01b03165f527f9aae6b709d857af2bed67bb686f14d35450d93e0187f3ff0787ddf0bec65610760205260405f2090565b6001600160a01b0333165f5260205260ff60405f2054166107f6565b346102bf5760406003193601126102bf5761090e612bcf565b6001600160a01b03610958610921612be5565b926001600160a01b03165f527f9aae6b709d857af2bed67bb686f14d35450d93e0187f3ff0787ddf0bec65610760205260405f2090565b91165f52602052602060ff60405f2054166040519015158152f35b346102bf5761098136612c11565b6001600160a01b0381939293168033148015610a5c575b15610746576109a68261344a565b90818411610a29576020846104b287866109bf84613fea565b936109cd8582848633613e2f565b6001600160a01b037f9aae6b709d857af2bed67bb686f14d35450d93e0187f3ff0787ddf0bec65610154166001600160a01b037f0773e532dfede91f04b12a73d3d2acd361424f41f76b4fb79f090161e36b4e00541690613f88565b83907ffe9cceec000000000000000000000000000000000000000000000000000000005f5260045260245260445260645ffd5b50610a97826001600160a01b03165f527f9aae6b709d857af2bed67bb686f14d35450d93e0187f3ff0787ddf0bec65610760205260405f2090565b6001600160a01b0333165f5260205260ff60405f205416610998565b346102bf5760206003193601126102bf5760ff7f9aae6b709d857af2bed67bb686f14d35450d93e0187f3ff0787ddf0bec656106541660028110156104e2576104ba5760206104b2600435613909565b346102bf5760406003193601126102bf5760206104b2610b21612be5565b6004356001600160a01b037f9aae6b709d857af2bed67bb686f14d35450d93e0187f3ff0787ddf0bec65610154166136a9565b346102bf5760406003193601126102bf5760206104b2610b72612be5565b6004356001600160a01b037f9aae6b709d857af2bed67bb686f14d35450d93e0187f3ff0787ddf0bec6561015416613bf8565b346102bf5760406003193601126102bf57610bcb610bc1612bcf565b6024359033613713565b602060405160018152f35b346102bf575f6003193601126102bf576020604051308152f35b346102bf5760406003193601126102bf57610c83610437610c0f612be5565b7f9aae6b709d857af2bed67bb686f14d35450d93e0187f3ff0787ddf0bec656101546040517f995ea21a00000000000000000000000000000000000000000000000000000000602082015260043560248201526001600160a01b039283166044820152929116906104459083906064820190565b602081519181808201938492010103126102bf5760209051604051908152f35b346102bf575f6003193601126102bf576040515f7f52c63247e1f47db19d5ce0460030c497f067ca4cebf71ba98eeadabe20bace0454610ce281612f28565b8084529060018116908115610d9f5750600114610d22575b610d1e83610d0a81850382612d03565b604051918291602083526020830190612c4b565b0390f35b7f52c63247e1f47db19d5ce0460030c497f067ca4cebf71ba98eeadabe20bace045f9081527f46a2803e59a4de4e7a4c574b1243f25977ac4c77d5a1a4a609b5394cebb4a2aa939250905b808210610d8557509091508101602001610d0a610cfa565b919260018160209254838588010152019101909291610d6d565b60ff191660208086019190915291151560051b84019091019150610d0a9050610cfa565b346102bf5760406003193601126102bf5760206104b2610de1612be5565b3390600435613572565b346102bf575f6003193601126102bf5760206001600160a01b037f9016d09d72d40fdae2fd8ceac6b6234c7706214fd39c1cd1e609a0528c1993005416604051908152f35b346102bf57610e3e36612c11565b906001600160a01b038216918233148015610f50575b156107465783610e6391613d81565b7f9aae6b709d857af2bed67bb686f14d35450d93e0187f3ff0787ddf0bec656101546040517f29344f08000000000000000000000000000000000000000000000000000000006020820152602481018590526001600160a01b038381166044830152610ed792166104458260648101610437565b91602083519381808201958692010103126102bf576020937fbb58420bb8ce44e11b84e214cc0de10ce5e7c24d0355b2815c3d758b514cae726001600160a01b039451948594610f4560405192839216943383602090939291936001600160a01b0360408201951681520152565b0390a4604051908152f35b50610f8b816001600160a01b03165f527f9aae6b709d857af2bed67bb686f14d35450d93e0187f3ff0787ddf0bec65610760205260405f2090565b6001600160a01b0333165f5260205260ff60405f205416610e54565b346102bf57610fb536612c11565b9091610fdc816001600160a01b0384169384331415806110d5575b6110c5575b3090613713565b611061610fe88261388c565b6001600160a01b03807f9aae6b709d857af2bed67bb686f14d35450d93e0187f3ff0787ddf0bec656101541695604051927fbff2bab50000000000000000000000000000000000000000000000000000000060208501526024840152846044840152169485606483015260648252610445608483612d03565b91602083519381808201958692010103126102bf576020937f1fdc681a13d8c5da54e301c7ce6542dcde4581e4725043fdab2db12ddc574506610f4594519485946040519182913383602090939291936001600160a01b0360408201951681520152565b6110d0823383613978565b610fd5565b50611110816001600160a01b03165f527f9aae6b709d857af2bed67bb686f14d35450d93e0187f3ff0787ddf0bec65610760205260405f2090565b6001600160a01b0333165f5260205260ff60405f20541615610fd0565b346102bf5760406003193601126102bf57602061045861044a610437611151612be5565b7f9aae6b709d857af2bed67bb686f14d35450d93e0187f3ff0787ddf0bec656101546040517f7c1b50c4000000000000000000000000000000000000000000000000000000008782015260043560248201526001600160a01b039283166044820152929116906104459083906064820190565b346102bf575f6003193601126102bf57336001600160a01b037f237e158222e3e6968b72b9db0d8043aacf074ad9f650f0d1606b4d82ee432c005416036112105761120e33613c7d565b005b7f118cdaa7000000000000000000000000000000000000000000000000000000005f523360045260245ffd5b346102bf575f6003193601126102bf57611254613c4a565b73ffffffffffffffffffffffffffffffffffffffff197f237e158222e3e6968b72b9db0d8043aacf074ad9f650f0d1606b4d82ee432c0054167f237e158222e3e6968b72b9db0d8043aacf074ad9f650f0d1606b4d82ee432c00555f6001600160a01b037f9016d09d72d40fdae2fd8ceac6b6234c7706214fd39c1cd1e609a0528c1993005473ffffffffffffffffffffffffffffffffffffffff1981167f9016d09d72d40fdae2fd8ceac6b6234c7706214fd39c1cd1e609a0528c19930055167f8be0079c531659141344cd1fd0a4f28419497f9722a3daafe3b4186f6b6457e08280a3005b346102bf5760206003193601126102bf576001600160a01b0361135c612bcf565b165f527f52c63247e1f47db19d5ce0460030c497f067ca4cebf71ba98eeadabe20bace00602052602060405f2054604051908152f35b346102bf5760406003193601126102bf5760206104b26113b0612be5565b3390600435612f60565b346102bf576113c836612c11565b6001600160a01b03811690813314801561151d575b156107465761141790846001600160a01b037f9aae6b709d857af2bed67bb686f14d35450d93e0187f3ff0787ddf0bec6561015416613bf8565b916001600160a01b037f0773e532dfede91f04b12a73d3d2acd361424f41f76b4fb79f090161e36b4e005416926001600160a01b03604051927fa9059cbb000000000000000000000000000000000000000000000000000000005f521693846004528160245260205f60448180855af160015f51148116156114fe575b83604052156114d3575033825260208201527f295a9a8b44c0ac92394b0da92ef469784ff064156f08dab8316760c064c6cd2f9080604081015b0390a4005b7f5274afe7000000000000000000000000000000000000000000000000000000005f5260045260245ffd5b600181151661151457813b15153d151616611494565b833d5f823e3d90fd5b50611558816001600160a01b03165f527f9aae6b709d857af2bed67bb686f14d35450d93e0187f3ff0787ddf0bec65610760205260405f2090565b6001600160a01b0333165f5260205260ff60405f2054166113dd565b346102bf5760406003193601126102bf5761158d612bcf565b602435908115158092036102bf576001600160a01b03906115de336001600160a01b03165f527f9aae6b709d857af2bed67bb686f14d35450d93e0187f3ff0787ddf0bec65610760205260405f2090565b8282165f5260205260405f2060ff1981541660ff851617905560405192835216907fceb576d9f15e4e200fdb5096d64d5dfd667e16def20c1eefd14256d8e3faa26760203392a3602060405160018152f35b346102bf5760206003193601126102bf5760ff7f9aae6b709d857af2bed67bb686f14d35450d93e0187f3ff0787ddf0bec6561065460081c1660028110156104e2576104ba5760206104b260043561388c565b346102bf5760206003193601126102bf5761169c612bcf565b5060206104b261325f565b346102bf575f6003193601126102bf5760206001600160a01b037f0773e532dfede91f04b12a73d3d2acd361424f41f76b4fb79f090161e36b4e005416604051908152f35b346102bf576101006003193601126102bf5760043567ffffffffffffffff81116102bf5780600401608060031983360301126102bf5761172a612be5565b91604435916001600160a01b038316928381036102bf576064359367ffffffffffffffff8516948581036102bf576084356001600160a01b0381168091036102bf57611774612bfb565b5060c4359267ffffffffffffffff841684036102bf5760e435946001600160a01b0386168096036102bf577ff0c57e16840df040f15088dc2f81fe391c3923bec73e23a9662efc9c229c6a00549960ff8b60401c16159a67ffffffffffffffff811680159081612494575b600114908161248a575b159081612481575b50612459578b60017fffffffffffffffffffffffffffffffffffffffffffffffff00000000000000008316177ff0c57e16840df040f15088dc2f81fe391c3923bec73e23a9662efc9c229c6a0055612404575b5088611877602461186f61186561185b8d806131bc565b939095018d6131bc565b9490923691613229565b923691613229565b9061188061433a565b80519067ffffffffffffffff82116122b65781906118be7f52c63247e1f47db19d5ce0460030c497f067ca4cebf71ba98eeadabe20bace0354612f28565b601f8111612377575b50602090601f83116001146122d5575f926122ca575b50505f198260011b9260031b1c1916177f52c63247e1f47db19d5ce0460030c497f067ca4cebf71ba98eeadabe20bace03555b80519067ffffffffffffffff82116122b65761194c7f52c63247e1f47db19d5ce0460030c497f067ca4cebf71ba98eeadabe20bace0454612f28565b601f8111612234575b50602090601f8311600114612188576001600160a01b039392915f918361217d575b50505f198260011b9260031b1c1916177f52c63247e1f47db19d5ce0460030c497f067ca4cebf71ba98eeadabe20bace04555b16916119b461433a565b8260405160405f602083017f313ce567000000000000000000000000000000000000000000000000000000008152600484526119f1602485612d03565b835190855afa5f519160405280612172575b80612167575b1561215f5760ff1660015b15612157575b7fffffffffffffffffffffff00000000000000000000000000000000000000000074ff00000000000000000000000000000000000000007f0773e532dfede91f04b12a73d3d2acd361424f41f76b4fb79f090161e36b4e00549260a01b16911617177f0773e532dfede91f04b12a73d3d2acd361424f41f76b4fb79f090161e36b4e0055611aa661433a565b1561212b57600491611ab9602092613c7d565b604051928380927f313ce5670000000000000000000000000000000000000000000000000000000082525afa8015612075575f906120ee575b60ff169050601281106120c957505f935b6044870135976001600160a01b0389168099036102bf57670494654067e10000106120a1573373ffffffffffffffffffffffffffffffffffffffff197f9aae6b709d857af2bed67bb686f14d35450d93e0187f3ff0787ddf0bec6561005416177f9aae6b709d857af2bed67bb686f14d35450d93e0187f3ff0787ddf0bec656100558773ffffffffffffffffffffffffffffffffffffffff197f9aae6b709d857af2bed67bb686f14d35450d93e0187f3ff0787ddf0bec6561015416177f9aae6b709d857af2bed67bb686f14d35450d93e0187f3ff0787ddf0bec6561015573ffffffffffffffffffffffffffffffffffffffff197f9aae6b709d857af2bed67bb686f14d35450d93e0187f3ff0787ddf0bec6561025416177f9aae6b709d857af2bed67bb686f14d35450d93e0187f3ff0787ddf0bec6561025573ffffffffffffffffffffffffffffffffffffffff197f9aae6b709d857af2bed67bb686f14d35450d93e0187f3ff0787ddf0bec6561035416177f9aae6b709d857af2bed67bb686f14d35450d93e0187f3ff0787ddf0bec656103557fffffffff0000000000000000ffffffffffffffffffffffffffffffffffffffff7bffffffffffffffff00000000000000000000000000000000000000007f9aae6b709d857af2bed67bb686f14d35450d93e0187f3ff0787ddf0bec656102549260a01b169116177f9aae6b709d857af2bed67bb686f14d35450d93e0187f3ff0787ddf0bec656102557fffffffff0000000000000000ffffffffffffffffffffffffffffffffffffffff7bffffffffffffffff00000000000000000000000000000000000000007f9aae6b709d857af2bed67bb686f14d35450d93e0187f3ff0787ddf0bec656103549260a01b169116177f9aae6b709d857af2bed67bb686f14d35450d93e0187f3ff0787ddf0bec656103557fffffff00ffffffffffffffffffffffffffffffffffffffffffffffffffffffff7cff000000000000000000000000000000000000000000000000000000007f9aae6b709d857af2bed67bb686f14d35450d93e0187f3ff0787ddf0bec656103549260e01b169116177f9aae6b709d857af2bed67bb686f14d35450d93e0187f3ff0787ddf0bec65610355604051907fdb221421000000000000000000000000000000000000000000000000000000008252602082600481875afa918215612075575f92612080575b5060028210156104e257600491602060ff7f9aae6b709d857af2bed67bb686f14d35450d93e0187f3ff0787ddf0bec656106549216958660ff198416177f9aae6b709d857af2bed67bb686f14d35450d93e0187f3ff0787ddf0bec65610655604051948580927f8a15525e0000000000000000000000000000000000000000000000000000000082525afa928315612075575f93612044575b5060028310156104e257611fab947fffffffffffffffffffffffffffffffffffffffffffffffffffffffffffff000061ff00611fa59560081b16921617177f9aae6b709d857af2bed67bb686f14d35450d93e0187f3ff0787ddf0bec6561065560646001600160a01b037f9aae6b709d857af2bed67bb686f14d35450d93e0187f3ff0787ddf0bec65610154169301906131bc565b91613bd6565b611fb157005b7fffffffffffffffffffffffffffffffffffffffffffffff00ffffffffffffffff7ff0c57e16840df040f15088dc2f81fe391c3923bec73e23a9662efc9c229c6a0054167ff0c57e16840df040f15088dc2f81fe391c3923bec73e23a9662efc9c229c6a00557fc7f505b2f371ae2175ee4913f4499e1f2633a7b5936321eed1cdaeb6115181d2602060405160018152a1005b61206791935060203d60201161206e575b61205f8183612d03565b810190614391565b9186611f10565b503d612055565b6040513d5f823e3d90fd5b61209a91925060203d60201161206e5761205f8183612d03565b9085611e77565b7f3a03baca000000000000000000000000000000000000000000000000000000005f5260045ffd5b60120360ff81116120da5793611b03565b634e487b7160e01b5f52601160045260245ffd5b506020813d602011612123575b8161210860209383612d03565b810103126102bf575160ff811681036102bf5760ff90611af2565b3d91506120fb565b7f1e4fbdf7000000000000000000000000000000000000000000000000000000005f525f60045260245ffd5b506012611a1a565b505f80611a14565b5060ff811115611a09565b5060203d1015611a03565b015190508e80611977565b90601f198316917f52c63247e1f47db19d5ce0460030c497f067ca4cebf71ba98eeadabe20bace045f52815f20925f5b81811061221c57509160019391856001600160a01b0397969410612204575b505050811b017f52c63247e1f47db19d5ce0460030c497f067ca4cebf71ba98eeadabe20bace04556119aa565b01515f1960f88460031b161c191690558e80806121d7565b929360206001819287860151815501950193016121b8565b7f52c63247e1f47db19d5ce0460030c497f067ca4cebf71ba98eeadabe20bace045f527f46a2803e59a4de4e7a4c574b1243f25977ac4c77d5a1a4a609b5394cebb4a2aa601f840160051c810191602085106122ac575b601f0160051c01905b8181106122a15750611955565b5f8155600101612294565b909150819061228b565b634e487b7160e01b5f52604160045260245ffd5b015190508e806118dd565b91601f1916917f52c63247e1f47db19d5ce0460030c497f067ca4cebf71ba98eeadabe20bace035f52815f20925f5b81811061235f5750908460019594939210612347575b505050811b017f52c63247e1f47db19d5ce0460030c497f067ca4cebf71ba98eeadabe20bace0355611910565b01515f1960f88460031b161c191690558e808061231a565b92936020600181928786015181550195019301612304565b7f52c63247e1f47db19d5ce0460030c497f067ca4cebf71ba98eeadabe20bace035f529091507f2ae08a8e29253f69ac5d979a101956ab8f8d9d7ded63fa7a83b16fc47648eab0601f840160051c810191602085106123fa575b90601f859493920160051c01905b8181106123ec57506118c7565b5f81558493506001016123df565b90915081906123d1565b7fffffffffffffffffffffffffffffffffffffffffffffff0000000000000000001668010000000000000001177ff0c57e16840df040f15088dc2f81fe391c3923bec73e23a9662efc9c229c6a00558b611844565b7ff92ee8a9000000000000000000000000000000000000000000000000000000005f5260045ffd5b9050158d6117f1565b303b1591506117e9565b8d91506117df565b346102bf575f6003193601126102bf5760ff7f0773e532dfede91f04b12a73d3d2acd361424f41f76b4fb79f090161e36b4e005460a01c1660ff807f9aae6b709d857af2bed67bb686f14d35450d93e0187f3ff0787ddf0bec6561035460e01c16160160ff81116120da5760209060ff60405191168152f35b346102bf5760206104b261252836612c11565b91612f60565b346102bf5760406003193601126102bf5760043561254a612be5565b6001600160a01b038116908133148015612607575b15610746577f9aae6b709d857af2bed67bb686f14d35450d93e0187f3ff0787ddf0bec656101546040517f2b9d9c1f000000000000000000000000000000000000000000000000000000006020820152602481018590526001600160a01b0392831660448201526125da929091166104458260648101610437565b507fa16c0f2cab616ed5d17cd544655b00d7062a1df7c457960cc8b9bf60770f92366020604051338152a3005b50612642816001600160a01b03165f527f9aae6b709d857af2bed67bb686f14d35450d93e0187f3ff0787ddf0bec65610760205260405f2090565b6001600160a01b0333165f5260205260ff60405f20541661255f565b346102bf5760406003193601126102bf57610c8361043761267d612be5565b7f9aae6b709d857af2bed67bb686f14d35450d93e0187f3ff0787ddf0bec656101546040517f26c6f96c00000000000000000000000000000000000000000000000000000000602082015260043560248201526001600160a01b039283166044820152929116906104459083906064820190565b346102bf5760606003193601126102bf57610bcb61270d612bcf565b612715612be5565b60443591612724833383613978565b613713565b346102bf575f6003193601126102bf5760207f52c63247e1f47db19d5ce0460030c497f067ca4cebf71ba98eeadabe20bace0254604051908152f35b346102bf5760206003193601126102bf5760ff7f9aae6b709d857af2bed67bb686f14d35450d93e0187f3ff0787ddf0bec6561065460081c1660028110156104e2576104ba5760206104b2600435613fea565b346102bf5760406003193601126102bf576127d1612bcf565b602435903315612887576001600160a01b031690811561285b57335f9081527f52c63247e1f47db19d5ce0460030c497f067ca4cebf71ba98eeadabe20bace0160205260409020825f526020528060405f20556040519081527f8c5be1e5ebec7d5bd14f71427d1e84f3dd0314c0f7b2291e5b200ac8c7c3b92560203392a3602060405160018152f35b7f94280d62000000000000000000000000000000000000000000000000000000005f525f60045260245ffd5b7fe602df05000000000000000000000000000000000000000000000000000000005f525f60045260245ffd5b346102bf5760206003193601126102bf5760206104b260043561388c565b346102bf575f6003193601126102bf576040515f7f52c63247e1f47db19d5ce0460030c497f067ca4cebf71ba98eeadabe20bace035461291081612f28565b8084529060018116908115610d9f575060011461293757610d1e83610d0a81850382612d03565b7f52c63247e1f47db19d5ce0460030c497f067ca4cebf71ba98eeadabe20bace035f9081527f2ae08a8e29253f69ac5d979a101956ab8f8d9d7ded63fa7a83b16fc47648eab0939250905b80821061299a57509091508101602001610d0a610cfa565b919260018160209254838588010152019101909291612982565b346102bf5760206003193601126102bf576004357fffffffff0000000000000000000000000000000000000000000000000000000081168091036102bf57807f01ffc9a70000000000000000000000000000000000000000000000000000000060209214908115612a8d575b8115612a63575b8115612a39575b506040519015158152f35b7f6c94bf240000000000000000000000000000000000000000000000000000000091501482612a2e565b7f41e1c1170000000000000000000000000000000000000000000000000000000081149150612a27565b7f87dfe5a00000000000000000000000000000000000000000000000000000000081149150612a20565b346102bf575f6003193601126102bf5760206104b2612d33565b346102bf57612adf36612c11565b6001600160a01b038116908133148015612b78575b15610746576001600160a01b03612b507f9c133d4657dc9cd12f4c08cef86ef778dbbe03f3ad3b661ff14d36bc3febb1fb9286837f9aae6b709d857af2bed67bb686f14d35450d93e0187f3ff0787ddf0bec65610154166136a9565b93612b5c858230613713565b60408051338152602081019690965291169390819081016114ce565b50612bb3816001600160a01b03165f527f9aae6b709d857af2bed67bb686f14d35450d93e0187f3ff0787ddf0bec65610760205260405f2090565b6001600160a01b0333165f5260205260ff60405f205416612af4565b600435906001600160a01b03821682036102bf57565b602435906001600160a01b03821682036102bf57565b60a435906001600160a01b03821682036102bf57565b60031960609101126102bf57600435906024356001600160a01b03811681036102bf57906044356001600160a01b03811681036102bf5790565b90601f19601f602080948051918291828752018686015e5f8582860101520116010190565b346102bf5760406003193601126102bf57610c83610437612c8f612be5565b7f9aae6b709d857af2bed67bb686f14d35450d93e0187f3ff0787ddf0bec656101546040517ff5a23d8d00000000000000000000000000000000000000000000000000000000602082015260043560248201526001600160a01b039283166044820152929116906104459083906064820190565b90601f601f19910116810190811067ffffffffffffffff8211176122b657604052565b919082018092116120da57565b6001600160a01b037f9aae6b709d857af2bed67bb686f14d35450d93e0187f3ff0787ddf0bec656101541660206001600160a01b037f0773e532dfede91f04b12a73d3d2acd361424f41f76b4fb79f090161e36b4e0054166024604051809481937ff3e0ffbf00000000000000000000000000000000000000000000000000000000835260048301525afa908115612075575f91612ef6575b507f9aae6b709d857af2bed67bb686f14d35450d93e0187f3ff0787ddf0bec656104549081811015612ef157600490612e3567ffffffffffffffff807f9aae6b709d857af2bed67bb686f14d35450d93e0187f3ff0787ddf0bec6561035460a01c161684614213565b60206001600160a01b037f9aae6b709d857af2bed67bb686f14d35450d93e0187f3ff0787ddf0bec6561025416604051948580927f01e1d1140000000000000000000000000000000000000000000000000000000082525afa908115612075575f91612ebb575b612eaf9350818082109118021890612d26565b90818082109118021890565b90506020833d602011612ee9575b81612ed660209383612d03565b810103126102bf57612eaf925190612e9c565b3d9150612ec9565b905090565b90506020813d602011612f20575b81612f1160209383612d03565b810103126102bf57515f612dcc565b3d9150612f04565b90600182811c92168015612f56575b6020831014612f4257565b634e487b7160e01b5f52602260045260245ffd5b91607f1691612f37565b91906001600160a01b03821633148015613165575b1561074657612f8261325f565b80841161312957509082612fa561300193612f9c8361405f565b95869133613a94565b6001600160a01b037f9aae6b709d857af2bed67bb686f14d35450d93e0187f3ff0787ddf0bec65610154166001600160a01b037f0773e532dfede91f04b12a73d3d2acd361424f41f76b4fb79f090161e36b4e00541690613b79565b61305d7f9aae6b709d857af2bed67bb686f14d35450d93e0187f3ff0787ddf0bec6561045467ffffffffffffffff807f9aae6b709d857af2bed67bb686f14d35450d93e0187f3ff0787ddf0bec6561035460a01c161690614213565b600460206001600160a01b037f9aae6b709d857af2bed67bb686f14d35450d93e0187f3ff0787ddf0bec6561025416604051928380927f01e1d1140000000000000000000000000000000000000000000000000000000082525afa908115612075575f916130f7575b50106130cf5790565b7ff9168713000000000000000000000000000000000000000000000000000000005f5260045ffd5b90506020813d602011613121575b8161311260209383612d03565b810103126102bf57515f6130c6565b3d9150613105565b836001600160a01b03837f79012fb2000000000000000000000000000000000000000000000000000000005f521660045260245260445260645ffd5b506131a0826001600160a01b03165f527f9aae6b709d857af2bed67bb686f14d35450d93e0187f3ff0787ddf0bec65610760205260405f2090565b6001600160a01b0333165f5260205260ff60405f205416612f75565b9035907fffffffffffffffffffffffffffffffffffffffffffffffffffffffffffffffe1813603018212156102bf570180359067ffffffffffffffff82116102bf576020019181360383136102bf57565b67ffffffffffffffff81116122b657601f01601f191660200190565b9291926132358261320d565b916132436040519384612d03565b8294818452818301116102bf578281602093845f960137010152565b7f9aae6b709d857af2bed67bb686f14d35450d93e0187f3ff0787ddf0bec656101547f0773e532dfede91f04b12a73d3d2acd361424f41f76b4fb79f090161e36b4e00546040517f8f1ab40f000000000000000000000000000000000000000000000000000000008152306004820181905260248201526001600160a01b0391821660448201529160209183916064918391165afa908115612075575f91613418575b50600460206001600160a01b037f9aae6b709d857af2bed67bb686f14d35450d93e0187f3ff0787ddf0bec6561025416604051928380927f01e1d1140000000000000000000000000000000000000000000000000000000082525afa8015612075575f906133e4575b7f9aae6b709d857af2bed67bb686f14d35450d93e0187f3ff0787ddf0bec656103546133af925060a01c67ffffffffffffffff1690670de0b6b3a7640000906144c4565b7f9aae6b709d857af2bed67bb686f14d35450d93e0187f3ff0787ddf0bec656104548103908111150290818082109118021890565b506020813d602011613410575b816133fe60209383612d03565b810103126102bf576133af905161336b565b3d91506133f1565b90506020813d602011613442575b8161343360209383612d03565b810103126102bf57515f613302565b3d9150613426565b6001600160a01b036134a3817f9aae6b709d857af2bed67bb686f14d35450d93e0187f3ff0787ddf0bec6561015416827f0773e532dfede91f04b12a73d3d2acd361424f41f76b4fb79f090161e36b4e005416906140d3565b91165f527f52c63247e1f47db19d5ce0460030c497f067ca4cebf71ba98eeadabe20bace00602052612eaf60405f205461388c565b6001600160a01b03613539613534827f9aae6b709d857af2bed67bb686f14d35450d93e0187f3ff0787ddf0bec6561015416837f0773e532dfede91f04b12a73d3d2acd361424f41f76b4fb79f090161e36b4e005416906140d3565b613fea565b91165f527f52c63247e1f47db19d5ce0460030c497f067ca4cebf71ba98eeadabe20bace0060205260405f205490818082109118021890565b9190916001600160a01b03821633148015613652575b156107465761359861065861325f565b8082116136165750906135b9826135b161300194613909565b809533613a94565b826001600160a01b037f9aae6b709d857af2bed67bb686f14d35450d93e0187f3ff0787ddf0bec65610154166001600160a01b037f0773e532dfede91f04b12a73d3d2acd361424f41f76b4fb79f090161e36b4e00541690613b79565b906001600160a01b03847f284ff667000000000000000000000000000000000000000000000000000000005f521660045260245260445260645ffd5b5061368d826001600160a01b03165f527f9aae6b709d857af2bed67bb686f14d35450d93e0187f3ff0787ddf0bec65610760205260405f2090565b6001600160a01b0333165f5260205260ff60405f205416613588565b6040517fb04a5e0500000000000000000000000000000000000000000000000000000000602082015260248101929092526001600160a01b0390921660448201526136fb916104458260648101610437565b602081519181808201938492010103126102bf575190565b6001600160a01b031690811561384f576001600160a01b031691821561382357815f527f52c63247e1f47db19d5ce0460030c497f067ca4cebf71ba98eeadabe20bace0060205260405f20548181106137f157817fddf252ad1be2c89b69c2b068fc378daa952ba7f163c4a11628f55a4df523b3ef92602092855f527f52c63247e1f47db19d5ce0460030c497f067ca4cebf71ba98eeadabe20bace0084520360405f2055845f527f52c63247e1f47db19d5ce0460030c497f067ca4cebf71ba98eeadabe20bace00825260405f20818154019055604051908152a3565b827fe450d38c000000000000000000000000000000000000000000000000000000005f5260045260245260445260645ffd5b7fec442f05000000000000000000000000000000000000000000000000000000005f525f60045260245ffd5b7f96c6fd1e000000000000000000000000000000000000000000000000000000005f525f60045260245ffd5b60ff16604d81116120da57600a0a90565b613894612d33565b600181018091116120da57613906915f916139007f52c63247e1f47db19d5ce0460030c497f067ca4cebf71ba98eeadabe20bace02546138fa60ff7f9aae6b709d857af2bed67bb686f14d35450d93e0187f3ff0787ddf0bec6561035460e01c1661387b565b90612d26565b91614235565b90565b613911612d33565b600181018091116120da57613906916001916139007f52c63247e1f47db19d5ce0460030c497f067ca4cebf71ba98eeadabe20bace02546138fa60ff7f9aae6b709d857af2bed67bb686f14d35450d93e0187f3ff0787ddf0bec6561035460e01c1661387b565b91906139b4836001600160a01b03165f527f52c63247e1f47db19d5ce0460030c497f067ca4cebf71ba98eeadabe20bace0160205260405f2090565b6001600160a01b0382165f5260205260405f2054925f1984106139d8575b50505050565b828410613a57576001600160a01b03811615612887576001600160a01b0382161561285b57613a3f6001600160a01b03916001600160a01b03165f527f52c63247e1f47db19d5ce0460030c497f067ca4cebf71ba98eeadabe20bace0160205260405f2090565b91165f5260205260405f20910390555f8080806139d2565b506001600160a01b0383917ffb8f41b2000000000000000000000000000000000000000000000000000000005f521660045260245260445260645ffd5b909260ff7f9aae6b709d857af2bed67bb686f14d35450d93e0187f3ff0787ddf0bec65610654169360028510156104e257613b4694613b6a5760406001600160a01b03807fdcbc1c05240f31ff3ad067ef1ee35ce4997762752e3a095284754544f4c709d793613b048888613d81565b613b0e868261427f565b835195888752602087015216941692a35b7f9aae6b709d857af2bed67bb686f14d35450d93e0187f3ff0787ddf0bec65610454612d26565b7f9aae6b709d857af2bed67bb686f14d35450d93e0187f3ff0787ddf0bec65610455565b613b74925061427f565b613b1f565b9091613bd3936001600160a01b039182604051957ff45346dc000000000000000000000000000000000000000000000000000000006020880152166024860152604485015216606483015260648252610445608483612d03565b50565b90918015613bf357613bd392613bed913691613229565b90614164565b505050565b6040517faabb592200000000000000000000000000000000000000000000000000000000602082015260248101929092526001600160a01b0390921660448201526136fb916104458260648101610437565b6001600160a01b037f9016d09d72d40fdae2fd8ceac6b6234c7706214fd39c1cd1e609a0528c1993005416330361121057565b73ffffffffffffffffffffffffffffffffffffffff197f237e158222e3e6968b72b9db0d8043aacf074ad9f650f0d1606b4d82ee432c0054167f237e158222e3e6968b72b9db0d8043aacf074ad9f650f0d1606b4d82ee432c00556001600160a01b03807f9016d09d72d40fdae2fd8ceac6b6234c7706214fd39c1cd1e609a0528c199300549216918273ffffffffffffffffffffffffffffffffffffffff198216177f9016d09d72d40fdae2fd8ceac6b6234c7706214fd39c1cd1e609a0528c19930055167f8be0079c531659141344cd1fd0a4f28419497f9722a3daafe3b4186f6b6457e05f80a3565b908160209103126102bf575180151581036102bf5790565b6001600160a01b037f0773e532dfede91f04b12a73d3d2acd361424f41f76b4fb79f090161e36b4e005416916001600160a01b03604051927f23b872dd000000000000000000000000000000000000000000000000000000005f52166004523060245260445260205f60648180865af19060015f5114821615613e0e575b6040525f606052156114d35750565b906001811516613e2657823b15153d15161690613dff565b503d5f823e3d90fd5b92919390937f9aae6b709d857af2bed67bb686f14d35450d93e0187f3ff0787ddf0bec656104547f52c63247e1f47db19d5ce0460030c497f067ca4cebf71ba98eeadabe20bace0254613e838185846144c4565b8115613f7457613e9891858409151590612d26565b81039081116120da577f9aae6b709d857af2bed67bb686f14d35450d93e0187f3ff0787ddf0bec6561045560ff7f9aae6b709d857af2bed67bb686f14d35450d93e0187f3ff0787ddf0bec6561065460081c169060028210156104e2576001600160a01b038080927ffbde797d201c681b91056529119e0b02407c7bb96a4a2c75c01fc9667232c8db95604095155f14613f6557828216838a1603613f55575b613f4281836143a9565b85519788526020880152169616941692a4565b613f60818a84613978565b613f38565b613f6f81306143a9565b613f42565b634e487b7160e01b5f52601260045260245ffd5b91936001600160a01b03809294613bd39682604051977fdfcd412e0000000000000000000000000000000000000000000000000000000060208a015216602488015260448701521660648501521660848301526084825261044560a483612d03565b61403f7f52c63247e1f47db19d5ce0460030c497f067ca4cebf71ba98eeadabe20bace02546138fa60ff7f9aae6b709d857af2bed67bb686f14d35450d93e0187f3ff0787ddf0bec6561035460e01c1661387b565b90614048612d33565b600181018091116120da5761390692600192614235565b6140b47f52c63247e1f47db19d5ce0460030c497f067ca4cebf71ba98eeadabe20bace02546138fa60ff7f9aae6b709d857af2bed67bb686f14d35450d93e0187f3ff0787ddf0bec6561035460e01c1661387b565b906140bd612d33565b600181018091116120da57613906925f92614235565b6040517ff20ebd01000000000000000000000000000000000000000000000000000000008152306004820181905260248201526001600160a01b0392831660448201529160209183916064918391165afa908115612075575f91614135575090565b90506020813d60201161415c575b8161415060209383612d03565b810103126102bf575190565b3d9150614143565b5f809183519060208501905af4903d1561420b573d916141838361320d565b926141916040519485612d03565b83523d5f602085013e5b156141a4575090565b8151156141b45750805190602001fd5b6142076141f5926040519384937ff0b97ac4000000000000000000000000000000000000000000000000000000008552604060048601526044850190612c4b565b90600319848303016024850152612c4b565b0390fd5b60609161419b565b670de0b6b3a76400006139069261422b8282856144c4565b9209151590612d26565b92916142428183866144c4565b9260048110156104e2576001809116149182614268575b50506139069250151590612d26565b9080925015613f7457613906930915155f80614259565b6001600160a01b0316908115613823577fddf252ad1be2c89b69c2b068fc378daa952ba7f163c4a11628f55a4df523b3ef6020826142df5f947f52c63247e1f47db19d5ce0460030c497f067ca4cebf71ba98eeadabe20bace0254612d26565b7f52c63247e1f47db19d5ce0460030c497f067ca4cebf71ba98eeadabe20bace02558484527f52c63247e1f47db19d5ce0460030c497f067ca4cebf71ba98eeadabe20bace00825260408420818154019055604051908152a3565b60ff7ff0c57e16840df040f15088dc2f81fe391c3923bec73e23a9662efc9c229c6a005460401c161561436957565b7fd7e6bcf8000000000000000000000000000000000000000000000000000000005f5260045ffd5b908160209103126102bf575160028110156102bf5790565b9091906001600160a01b0316801561384f57805f527f52c63247e1f47db19d5ce0460030c497f067ca4cebf71ba98eeadabe20bace0060205260405f2054838110614491576020845f94957fddf252ad1be2c89b69c2b068fc378daa952ba7f163c4a11628f55a4df523b3ef938587527f52c63247e1f47db19d5ce0460030c497f067ca4cebf71ba98eeadabe20bace008452036040862055807f52c63247e1f47db19d5ce0460030c497f067ca4cebf71ba98eeadabe20bace0254037f52c63247e1f47db19d5ce0460030c497f067ca4cebf71ba98eeadabe20bace0255604051908152a3565b91507fe450d38c000000000000000000000000000000000000000000000000000000005f5260045260245260445260645ffd5b90915f198383099280830292838086109503948086039514614555578483111561453d5790829109815f0382168092046002816003021880820260020302808202600203028082026002030280820260020302808202600203028091026002030293600183805f03040190848311900302920304170290565b82634e487b715f52156003026011186020526024601cfd5b505080925015613f7457049056",
    "linkReferences": {}
  },
  "methodIdentifiers": {
    "acceptOwnership()": "79ba5097",
    "allowance(address,address)": "dd62ed3e",
    "approve(address,uint256)": "095ea7b3",
    "asset()": "38d52e0f",
    "balanceOf(address)": "70a08231",
    "cancelDepositRequest(uint256,address)": "b9cf0634",
    "cancelRedeemRequest(uint256,address)": "2b9d9c1f",
    "claimCancelDepositRequest(uint256,address,address)": "69d77a44",
    "claimCancelRedeemRequest(uint256,address,address)": "00a06d19",
    "claimableCancelDepositRequest(uint256,address)": "aabb5922",
    "claimableCancelRedeemRequest(uint256,address)": "b04a5e05",
    "claimableDepositRequest(uint256,address)": "995ea21a",
    "claimableRedeemRequest(uint256,address)": "eaed1d07",
    "convertToAssets(uint256)": "07a2d13a",
    "convertToShares(uint256)": "c6e6f592",
    "decimals()": "313ce567",
    "deposit(uint256,address)": "6e553f65",
    "deposit(uint256,address,address)": "2e2d2984",
    "initialize((string,string,address,bytes),address,address,uint64,address,address,uint64,address)": "33f180d7",
    "isOperator(address,address)": "b6363cf2",
    "maxDeposit(address)": "402d267d",
    "maxMint(address)": "c63d75b6",
    "maxRedeem(address)": "d905777e",
    "maxWithdraw(address)": "ce96cb77",
    "mint(uint256,address)": "94bf804d",
    "mint(uint256,address,address)": "da39b3e7",
    "name()": "06fdde03",
    "owner()": "8da5cb5b",
    "pendingCancelDepositRequest(uint256,address)": "f15b65b1",
    "pendingCancelRedeemRequest(uint256,address)": "7c1b50c4",
    "pendingDepositRequest(uint256,address)": "26c6f96c",
    "pendingOwner()": "e30c3978",
    "pendingRedeemRequest(uint256,address)": "f5a23d8d",
    "previewDeposit(uint256)": "ef8b30f7",
    "previewMint(uint256)": "b3d7f6b9",
    "previewRedeem(uint256)": "4cdad506",
    "previewWithdraw(uint256)": "0a28a477",
    "redeem(uint256,address,address)": "ba087652",
    "renounceOwnership()": "715018a6",
    "requestDeposit(uint256,address,address)": "85b77f45",
    "requestRedeem(uint256,address,address)": "7d41c86e",
    "setOperator(address,bool)": "558a7297",
    "share()": "a8d5fd65",
    "supportsInterface(bytes4)": "01ffc9a7",
    "symbol()": "95d89b41",
    "totalAssets()": "01e1d114",
    "totalSupply()": "18160ddd",
    "transfer(address,uint256)": "a9059cbb",
    "transferFrom(address,address,uint256)": "23b872dd",
    "transferOwnership(address)": "f2fde38b",
    "vault(address)": "f815c03d",
    "withdraw(uint256,address,address)": "b460af94"
  },
  "id": 40
}